:100000006F005026000000004A0100004C01000073
:1000100000000000000000000000000000000000E0
:1000200000000000000000000000000000000000D0
:10003000620A000000000000620A000000000000E8
:10004000620A0000620A0000620A0000620A000000
:10005000620A0000620A0000620A0000620A0000F0
:10006000620A0000620A0000620A0000620A0000E0
:10007000620A0000620A0000620A0000620A0000D0
:10008000620A0000620A0000620A0000620A0000C0
:10009000620A0000620A00009E03000000000000E7
:1000A000511126C022C206C4828282441244A24058
:1000B000310182802A86014593F6150091C232955E
:1000C00085810606F5F9828000000000634E050276
:1000D00063C305042E86AA857D5515C285466378BF
:1000E000B6006356C00006068606E36CB6FE014500
:1000F00063E4C500918D558D85820582F5FA828075
:100100008682C93F2E8582823305A04063D70500D1
:10011000B305B040C1B7B305B0408682653F330533
:10012000A0408282868263C70500634905005D376F
:100130002E858282B305B040E35B05FE3305A04007
:10014000513F3305B0408282000001A0B707EFBEE7
:1001500037E700E0938707083CC701A0EFF25FF4A0
:10016000130181FD1387018B2E849302950393075E
:10017000D50381433AC03ED003C53191BD4516D267
:100180001E951ECE45372A872384A188BD450505C7
:100190003AC2493F1247A384A1888247131317002C
:1001A0003A939A9703C307003EC283D4A190824733
:1001B000131615002A96B2972ACA8823A6853ACC28
:1001C000330565403EC41AC6F535A2850137324372
:1001D000A6851A959377F50F3EC632472386E18AA6
:1001E00092479033A24732C88833118DE135A285FA
:1001F000F13D1247424603432700224732952386AA
:10020000A1902823A6851AC2330565406535A285CD
:10021000753D124382461A952387A19062473D0798
:10022000131617003297369710233AC8D24632C2B7
:10023000BD0693951600AE968245AE968822A68599
:1002400036C4118D853DA2855135124642473295FF
:10025000A386A18AA2461033A685883232C2118DA8
:10026000913DA285A5351246A246424732953823D4
:10027000A386A190A822A6853AC2198D253DA28504
:10028000B13512479252B2453A95A387A190238087
:10029000B20003C7C1908257A380E20003C7E19078
:1002A000F11291072383E20003C7D18A238EE7FE70
:1002B00003C7D190A38EE7FE03C7F190F243238FCB
:1002C000E7FE85033D47E398E3EA13018102F1BBB2
:1002D000B70700209387C70113878707FD5694A3AC
:1002E000A380070023810700A38107009107E398FB
:1002F000E7FE8280EFF2DFDA1384018B8144BD4593
:100300002685E9331345F5FF85671375F50F130748
:100310004005938707F09306900A636EA7021316B1
:1003200025003306C540931515002E957D161376CE
:10033000F60F1375F50F814508A00CB030A0A30689
:10034000A4022307B402A307C402938404100D047B
:10035000E397F4FA99BB63E3A6021305B5FA1375A4
:10036000F50F9315150013162500AA95118D7D150F
:1003700093F5F50F1375F50F01467DBF1305650560
:100380001375F50F13161500931525002A960D8D7C
:100390007D159375F50F1376F60F014571BF711139
:1003A00085453705004022C0EF00304129C583C78D
:1003B0004191370400208545850793F7F70F238A7D
:1003C000F19083479401371501408507A30CF40091
:1003D000EF00007C05476314E50203479401F547ED
:1003E00063F6E700B7070020238DA7008545370592
:1003F0000040EF00103E0244110173002030B707A7
:10040000002083C6A7016394E604238D0700492CCE
:1004100003C7B1888D4605071377F70F63E6E60239
:10042000A385E18803C7B1889387C1880E07BA976F
:100430009223B4232390C1881387018834A3D62341
:10044000FC2356A37CA35DB7A3850188E1BFA30C61
:10045000040069BFEFF2DFC4370400200325440124
:10046000B7440F0093850424B5319305F5FFC20509
:10047000C1811305E00F252B032544019385042436
:1004800091399305F5FFC205C1811305703EAD2377
:10049000138401887D21EF0090341D3DA13D3D2452
:1004A000CD2C914603C74191E3FEE6FE238A0190DD
:1004B0007C2005476394E7002128E5B7094763944A
:1004C000E7006928F9BF0D47E39DE7FCAD22D1BFE6
:1004D000EFF21FBD93870188D6231384018891CA48
:1004E00083D701918507C207C1832398F19063FDEB
:1004F000D70285472389F19083C721918546639E62
:10050000D70283C50188B7340140138504C0EF00CA
:10051000502A0C30138504C0EF00F0292C201385DD
:1005200004C0EF00D02851B6860663D5D7002389D2
:100530000190D9B723980190C1B7F5F7373401403E
:100540008145130504C0EF00D0268145130504C082
:10055000EF0070268145130504C0E1B7EFF25FB4E8
:10056000B706002003C606008545311103D7C187B1
:100570006316B60A0507239EE18683C2018803D36A
:10058000C18713840188462016859A8516C81AC02B
:100590001536A685253E8343140002431377F50FD5
:1005A0002385E1881E859A853AC61EC21AC419366B
:1005B000A685293E224320201376F50F238FC1867E
:1005C0009A85228532C0FD34A68509360246324717
:1005D0001375F50FB7040020B365C700238CA40082
:1005E000C98D9243C242B706002095ED054623808F
:1005F000C60037340140BA85130504C0EF00701BF4
:1006000083C5E187130504C0EF00F01A83C5840198
:10061000130504C0EF00B019510141BC8945E31E28
:10062000B6F47D1789BFE36657FCE36476FCE362AA
:1006300085FC09466DBFEFF2BFA683D7A19083D595
:1006400041888507C207C1832395F19063EEB70007
:100650002395019083C73191B946850793F7F70F2A
:1006600063EDF602A389F190370400201305C4015D
:10067000F5341304C4012C30B7340140138504C091
:10068000EF0030132C20138504C0EF00D0120C3083
:10069000138504C0EF00B01109BCA3890190E9B72C
:1006A00023980190239E01860547B70700202380E9
:1006B000E70023850188238F0186B7070020238C5C
:1006C000070023950190A38901908280EFF25F9D3E
:1006D000C1671111373401409387070602CA3EC62D
:1006E0006C008947130504C0FC8202C002C202C428
:1006F00002C802CC192D6C00130504C0A52D6C0096
:10070000130504C019276C00130504C0EF002079FD
:10071000130504C08145EF001005130504C0814591
:10072000EF005005130504C08145EF0010061305C6
:1007300004C08145EF005006130504C08545EF0055
:10074000607E0D44E144A1478A85371501407C80D5
:1007500026C422C2C126C1478A85371501407C8044
:1007600026C422C2452E3715014091478A851305BC
:1007700005407C8026C422C2712E85477C808A85F4
:100780009147371501403EC422C2692671016FF0BE
:10079000DF911306800C239601889387C188D2A726
:1007A0000D66130626237D5792AB130620039AA7E6
:1007B000B8A7B0AB9AAF13064006B8AF514785460D
:1007C000D2ABDAAF09460D47238107002392070019
:1007D000F4A3F4A7F0ABF8AF2390018893870188C6
:1007E0002381070023920700F4A38280EFF25F8B3E
:1007F0008946B727024094C3371402401C4037078C
:10080000FF68611193E717001CC05C40F98F5CC062
:100810001C403707D7FE6D17F98F37071000D98FA7
:100820001CC01C403707FCFF7D17F98F1CC05C40C3
:1008300041777D17F98F5CC0B7079D001CC41C4C25
:1008400093E707021CCCB717014003A707401377B3
:10085000F7F023A0E74003A707401367070823A08A
:10086000E74023A8D740152E02C002C21C4C370710
:100870000140B706020093E717001CCC5C43370623
:100880000200D58F5CC31C404167B7160240D98F68
:100890001CC009679C42F18F3EC2824785073EC05B
:1008A000924781E78247E397E7FEB71702409C43F0
:1008B0001397E7006354070685473EC212478547F2
:1008C0006310F706B7170240D843C176FD16D8C3A8
:1008D000D843758FD8C3D843C166558FD8C39843C2
:1008E000B7060001558F98C3984393166700E3DD60
:1008F00006FED843B7160240719BD8C3D84313678E
:100900002700D8C32147DC42B18BE39EE7FEB7271F
:100910000240094798C321016FF02FF902C279BF45
:10092000B7060140DC4201777D17F98FDCC2B717AB
:100930000240984FC176FD16799B98CF9843758FEA
:10094000D1BFEFF2EFF5371702405C4337040020C8
:100950009146B18B130444016385D700A14663829D
:10096000D704B7376E01938707601CC0B7160240E3
:10097000DC420840918313F7F700B7070020938704
:100980004700BA978C23DC4293F5F50F93F70708DD
:100990003357B50081E7EFF0EFF32A8718C06FF007
:1009A000CFF05C43B777DC02938707C07DBFEFF2DF
:1009B0002FEFAA84056551112E84130545838545C3
:1009C00002C002C223140100652C6080373401404C
:1009D0008A85130504C064822313010023110100DA
:1009E000F12C130504C0854595238545130504C0E6
:1009F000312B31016FF06FEBEFF28FEA31112E8462
:100A0000AA848545054502C402C62318010002C018
:100A100002C271242C0037050040648660842317CD
:100A2000010023150100592C054685453705004076
:100A30002923930760027C8085475C810A8585476E
:100A40003EC2F12A814537050040E9298545370531
:100A50000040ED298545370500404D2951016FF0D3
:100A6000CFE401A097010020938141DB138181FE37
:100A70001305000A97F5FF1F9385C55817F6FF1F4A
:100A80001306465863FAC5008322050023A05500CB
:100A900011059105E3EAC5FE170500001305C557CA
:100AA00097F5FF1F9385055617F6FF1F1306065788
:100AB00063FAC5008322050023A0550011059105A6
:100AC000E3EAC5FE17F5FF1F13054555938501920F
:100AD0006377B500232005001105E36DB5FEB7224D
:100AE000000093820288739002308D42739042809E
:100AF00097F2FFFF9382025193E2320073905230DB
:100B0000EFF0DFCE970200009382029573901234CB
:100B100073002030944593F7060193F2F60081C7E5
:100B2000DC41B3E2F20083D3050093F7F30FA5C3D2
:100B300003230500611122C226C0814713048002ED
:100B40009304800405473316F70033F7C30063129C
:100B5000E602939527003D473317B7001347F7FF89
:100B600033736700B395B20033E36500639D86007D
:100B700050C985072147E397E7FC1244232065000D
:100B8000824421018280E39696FE10C9DDB78280FF
:100B900008456D8D3335A0008280EFF26FD0511182
:100BA00085451305400302C002C202C4D128B7F72D
:100BB000FF1F83A7477C370732001307075093F7BF
:100BC000F7F0638BE700370733001307075063899B
:100BD000E70231016FF06FCD37150140B5471304BF
:100BE00080048A85130505407C8022C4253793073D
:100BF00000028A85371501407C8022C4213FD1BF85
:100C0000371501409307D008130480048A85130523
:100C100005407C8022C4FD3D9307900ED9BF83A67A
:100C20008191854718216390F6021C31639CD7029D
:100C30003C219A0793E707F8B7E600E093F7F70F30
:100C4000BA962380F6408546935757003397E600BF
:100C5000544189CE938707048A07B7E600E0B69728
:100C600098C38280EDF33C219A07F9B79387070672
:100C7000B7E600E08A07B69798C30F10000082809D
:100C800099C5371702401C4F5D8D08CF8280B7177A
:100C90000240984F1345F5FF798D88CF828099C522
:100CA000371702405C4F5D8D48CF8280B7170240F6
:100CB000D84F1345F5FF798DC8CF82801E21373775
:100CC0000140130707C0C207C1836306E500370769
:100CD00000406316E500BA2193F7F7F8D98FFA219F
:100CE00093F7F7CFC207C183D98F1EA1DE215EB56E
:100CF0009E211EB5B7370140938707C06314F500E6
:100D00009C251EB985475EA982801E31922103D39E
:100D10002500C207C183F99BC207C1831EB11E31E2
:100D200056211A2DC207C183420741831377C7F8A2
:100D3000518F9225F59BC20633666600D18F3736F8
:100D40000140130606C0C1826310C502B225DD9BB7
:100D500003D3E500D18FD221ED9B93F6F6CFD18F4F
:100D6000D22533666600D18E56A11AADFA2158D924
:100D70001EB182801E3165771307F7CFC207C1838A
:100D8000BD9BC207C1831EB11E31562103D385000E
:100D9000C20713960601162DC18393F7F7FD758FD1
:100DA00096214182A206558FB62142074183B3E6C0
:100DB00066009206D58FB7360140C207938606C0FB
:100DC000C183631ED502B62593F7F7F703D3C50099
:100DD0009206D58FD621C207C183920693F7F7FBFF
:100DE000D58FFD769386F63FF18EF225C207C1833B
:100DF000336666000A06D18E13960601418252A11F
:100E00001AADFA2118DD1EB182801E31922103D362
:100E10008500C207C18393F7F7EFC207C1831EB1F4
:100E20001E3156215A2DC207C183420741831377D1
:100E3000C7F8518FB22193F7F7DFC2063366660019
:100E40002206D18F13960701B7370140938707C059
:100E5000C1824182631FF502FD779387F77FF18F8F
:100E6000B22503D3C5002206D18FD221C207C18388
:100E7000220693F7F7BFD18F13960701F577FD1779
:100E8000FD8EFE254182B3E767009207DD8EC20624
:100E9000C182FE2156A15AAD5CDD12B182801A31A9
:100EA000FD77FD17F98F1EB1035305025A215E2D00
:100EB000E5769386F6CFFD8E9E2113160701BA21A3
:100EC000A207DD8EF977FD17B3F7670003D385001E
:100ED000C2064182336767003207D98F3737014036
:100EE000C207130707C0C182C183631BE500717786
:100EF0007D17718FD2251A06518F13160701418273
:100F0000FA2152A156AD38C11EB182801E2189C579
:100F100093E717001EA18280C207C183F99BC20715
:100F2000C183CDBF8357450491C52167D98F231253
:100F3000F5048280C607C583DDBF5E2501C6DD8D51
:100F40004EA5828093C5F5FFFD8DDDBF1E2189C5AD
:100F500093E707081EA18280C207C18393F7F7F7C2
:100F6000C207C183C5BF1E2DC207C183DD9BDD8DB6
:100F70000EAD82801A2DFD779387F77FF98FA2053A
:100F8000CD8FC207C1831EAD82805E2DC207C18393
:100F9000DD9BDD8D4EAD82805A2DFD779387F77FE7
:100FA000F98FA205CD8FC207C1835EAD82804CD977
:100FB00082804CDD82802CC182801E294A25ED8FE3
:100FC0004205418189C76D8D3335A000828001457E
:100FD000828093C5F5FFC205C1810EA98280EFF220
:100FE0002F8CB707002003A54701B7157A0093851A
:100FF0000520EFF02F8E1375F50F238FA190931717
:101000005500898F8A073E950E05239EA1906FF0AB
:04101000CF89000084
:10101400010000000102030405060708010203049D
:0810240005060708006CDC0260
:00000001FF
